:020000040800F2
:1000000030490020810200085D230008E102000859
:10001000E1020008E1020008E1020008000000001F
:10002000000000000000000000000000B1180008FF
:10003000E102000800000000AD190008F1190008F5
:10004000E1020008E1020008E1020008E102000804
:10005000E1020008E1020008E1020008E1020008F4
:10006000E1020008E1020008E1020008E1020008E4
:10007000E1020008E1020008E1020008E1020008D4
:10008000E1020008E1020008E1020008E1020008C4
:10009000E1020008E1020008E1020008E1020008B4
:1000A000E1020008E1020008E1020008E1020008A4
:1000B000E1020008E1020008E1020008E102000894
:1000C000E1020008E1020008E1020008E102000884
:1000D000E102000809070008E1020008E102000847
:1000E000E1020008E1020008E1020008000000004F
:1000F0000000000000000000000000000000000000
:1001000000000000000000005FF808F180B500AFBB
:10011000154B154A126842F001021A60124A124B3E
:100120005968124B0B4053600F4A0F4B1B6823F06A
:10013000847323F4803313600B4B0B4A126822F450
:1001400080221A60084B084A526822F4FE025A6064
:10015000054B4FF41F029A6000F00CF8044B4FF06F
:1001600000629A6080BD00BF001002400000FFF8EE
:1001700000ED00E080B500AF00F002F880BD00BFE8
:1001800080B483B000AF00237B6000233B603A4B18
:10019000394A126842F480321A60374B1B6803F404
:1001A00000333B607B6801337B603B68002B03D1ED
:1001B0007B68B3F5A06FF0D12F4B1B6803F40033BD
:1001C000002B02D001233B6001E000233B603B6831
:1001D000012B4BD1294B294A126842F010021A60B8
:1001E000264B264A126822F003021A60234B234A48
:1001F000126842F002021A601F4B1F4A52685A608E
:100200001D4B1D4A52685A601B4B1B4A526842F4F0
:1002100080625A60184B184A526822F47C125A6065
:10022000154B154A526842F4E8125A60124B124AB2
:10023000126842F080721A6000BF0F4B1B6803F017
:100240000073002BF9D00C4B0B4A526822F00302CA
:100250005A60094B084A526842F002025A6000BFD5
:10026000054B5B6803F00C03082BF9D10C37BD4636
:100270005DF8047B704700BF001002400020024080
:1002800080B582B000AF114B7B60114B3B6007E043
:100290003B681A1D3A607A68111D796012681A600D
:1002A0003A680C4B9A42F3D30B480C494FF00002CA
:1002B0008842B8BF40F8042BFFF6FAAFFFF726FFDD
:1002C00000F0EAF80837BD4680BD00BF7826000878
:1002D000000000200C0000200C0000202C45002015
:1002E00080B400AFFEE700BF80B489B000AF786093
:1002F00039600023FB6100233B610023BB610023C5
:10030000FB6000237B610023BB603B68DB7803F06C
:100310000F03FB613B68DB7803F01003002B04D074
:100320003B689B78FA691343FB613B681B88DBB22F
:10033000002B44D07B681B687B610023BB6138E0E5
:10034000BB69012202FA03F3FB603B681B881A4673
:10035000FB6813403B613A69FB689A4226D1BB694E
:100360009B00FB60FB680F2202FA03F3BB60BB68D3
:10037000DB437A6913407B61FB68FA6902FA03F395
:100380007A6913437B613B68DB78282B05D1BB6915
:1003900001229A407B685A6108E03B68DB78482B71
:1003A00004D1BB6901229A407B681A61BB690133A1
:1003B000BB61BB69072BC3D97B687A691A603B684C
:1003C0001B88FF2B46D97B685B687B610023BB6180
:1003D0003AE0BB690833012202FA03F3FB603B6891
:1003E0001B881A46FB6813403B613A69FB689A42D6
:1003F00027D1BB699B00FB60FB680F2202FA03F365
:10040000BB60BB68DB437A6913407B61FB68FA69B8
:1004100002FA03F37A6913437B613B68DB78282B8C
:1004200005D1BB69083301229A407B685A613B6859
:10043000DB78482B05D1BB69083301229A407B68E1
:100440001A61BB690133BB61BB69072BC1D97B68EA
:100450007A695A602437BD465DF8047B704700BF57
:1004600080B483B000AF78600B467B807A887B686D
:100470001A610C37BD465DF8047B704780B483B0C9
:1004800000AF78600B467B807A887B685A610C37B6
:10049000BD465DF8047B704780B584B004AF01F0C1
:1004A000E1FE01F0D1FE00F067F84FF41650294943
:1004B00001F0A4FF02F012F820200121002201F037
:1004C0000FFB0246244B1A6001200021032201F099
:1004D00007FB0246214B1A60204B1B68002B07D0FC
:1004E0001E4B1B68184600210022002301F030FB40
:1004F0001A4B1B68002B0DD002230093002301939D
:1005000000230293002303931548164980220023F9
:1005100000F020FB012300930023019300230293AA
:1005200000230393104811498022002300F012FB9E
:1005300001230093002301930023029300230393DC
:100540000B480C498022002300F004FB00F014FC4F
:10055000FEE700BF00F36F06244500202845002079
:100560004D0700081C260008950600082C260008E8
:10057000A90500083426000880B582B000AF082025
:10058000012100F00BF90323BB801023FB7103232F
:10059000BB713B1D03481946FFF7A6FE0837BD4651
:1005A00080BD00BF000C014080B582B000AF786014
:1005B00008480121FFF754FF4FF47A7000F0B4FBB4
:1005C00004480121FFF75AFF4FF47A7000F0ACFBAA
:1005D000EEE700BF000C014080B586B000AF786048
:1005E0000023FB75124B1A6807F10F0310461946DA
:1005F0004FF0FF32002301F07BFB38613B69012B98
:1006000011D1FB7D202B03D100F010FA0023FB75E4
:10061000FB7D102B03D10220002100F015FAFB7B9B
:10062000184600F03BFAFB7D0133FB75DAE700BFAB
:1006300024450020B0B58CB000AF7860134B07F1B3
:1006400008041D460FCD0FC495E80F0084E80F0085
:1006500007F10803FB620EE00D4B1B681846F96AB0
:100660000022002301F074FAB862BB6A012B02D1A8
:10067000FB6A0133FB62FB6A1B78002BECD1002084
:1006800000F004FB3037BD46B0BD00BF3C2600087B
:100690002445002080B586B004AF786000F032FABF
:1006A000012300930023019300230293002303936B
:1006B0000C480D498022002300F04CFA01230093DE
:1006C0000023019300230293002303930748084962
:1006D0008022002300F03EFA002000F0D7FA08370D
:1006E000BD4680BDD9050008602600083506000813
:1006F0006826000880B483B000AF0023FB710C377C
:10070000BD465DF8047B704780B500AF0C4B1B887D
:100710009BB203F02003002B10D00A4B00221A607A
:10072000094B1B6818460021064A002301F09CFA79
:10073000044B1B68012B01D101F0F8F880BD00BF0C
:10074000003801400C0000202845002080B584B00E
:1007500000AF78600E4B1B68184600214FF0FF3247
:10076000002301F0C5FA0B4B0A4AD26882F002025C
:10077000DA6001F0C7FE0346FB73074B1A68FB7B88
:10078000104619460022002301F0E2F9B860E1E7C3
:1007900028450020000C01402445002080B483B08F
:1007A00000AF78600B46FB70FB78002B06D0094B3E
:1007B000084A91697A680A439A6106E0054B054A3E
:1007C00091697A68D2430A409A610C37BD465DF858
:1007D000047B70470010024080B400AF0C4B0C4A01
:1007E000926942F008029A610A4A0A4B5B6823F058
:1007F000CC2323F44C035360064A064B5B6843F05A
:10080000332343F44C135360BD465DF8047B7047BB
:1008100000100240000C014080B584B000AF786049
:100820000023FB607B68B3F57A7F05D37A680F4BB2
:10083000A3FB02139B097B607B68632B05D97A6855
:100840000B4BA3FB02135B097B607B68092B05D96B
:100850007A68084BA3FB0213DB087B607B681846B1
:1008600000F062FA1037BD4680BD00BFD34D621064
:100870001F85EB51CDCCCCCC80B582B000AF786079
:100880000A4B0A4AD26842F40062DA607868FFF7DD
:10089000C3FF064B054AD26822F40062DA6078682A
:1008A000FFF7BAFF0837BD4680BD00BF000C01400E
:1008B00080B483B000AF0346FB71FB795BB2002BC1
:1008C00006DA244B234AD26842F40042DA6005E09B
:1008D000204B204AD26822F40042DA60FB7903F010
:1008E0004003002B06D01B4B1A4AD26842F48042C8
:1008F000DA6005E0174B174AD26822F48042DA60CA
:10090000FB7903F02003002B06D0124B114AD2686A
:1009100042F40052DA6005E00E4B0E4AD26822F42F
:100920000052DA60FB7903F01003002B06D0094B6C
:10093000084AD26842F48052DA6005E0054B054A65
:10094000D26822F48052DA600C37BD465DF8047B31
:10095000704700BF000C014080B483B000AF034675
:10096000FB71FB7903F00803002B06D0234B234ACD
:10097000D26842F40042DA6005E0204B1F4AD26898
:1009800022F40042DA60FB7903F00403002B06D066
:100990001A4B1A4AD26842F48042DA6005E0174BDB
:1009A000164AD26822F48042DA60FB7903F002032F
:1009B000002B06D0114B114AD26842F40052DA6083
:1009C00005E00E4B0D4AD26822F40052DA60FB7942
:1009D00003F00103002B06D0084B084AD26842F40A
:1009E0008052DA6005E0054B044AD26822F4805256
:1009F000DA600C37BD465DF8047B7047000C01409F
:100A000080B582B000AF0346FB71FB791846FFF753
:100A10004FFF1420FFF730FFFB791846FFF79CFFCC
:100A20001420FFF729FF0837BD4680BD80B500AF11
:100A30000120FFF7E5FFC820FFF7EEFE014B002283
:100A40001A7080BD1000002080B582B000AF024651
:100A50000B46FA71BB71FB79022B0BD0052B11D021
:100A6000012B17D1BB7963F07F03DBB21846FFF788
:100A7000C7FF0FE0BB7963F03F03DBB21846FFF717
:100A8000BFFF07E0BB7943F04003DBB21846FFF736
:100A9000B7FF00BF0837BD4680BD00BF80B582B03C
:100AA00000AF0346FB71094B084AD26842F48062EA
:100AB000DA60FB791846FFF7A3FF044B034AD268BC
:100AC00022F48062DA600837BD4680BD000C014028
:100AD00080B582B000AF0346FB71FB791846FFF783
:100AE000E7FE0920FFF7C8FE0920FFF7C5FEFB79E6
:100AF0001846FFF731FF2820FFF7BEFE0837BD4636
:100B000080BD00BF80B500AF43F69820FFF784FE9C
:100B1000FFF762FE3020FFF773FF3020FFF770FF12
:100B20003020FFF76DFF3020FFF76AFF3020FFF71E
:100B300067FF2C20FFF7CCFF0C20FFF761FF06209A
:100B4000FFF75EFF0120FFF75BFF0220FFF758FF72
:100B500080BD00BF80B58AB002AFF860B9603B606D
:100B60001346FB80FB881846396B00F0B1FCB86176
:100B7000BB69002B66D0BB691A6BFB8803F180430D
:100B8000013B9B0013447B617B6923F007037B617E
:100B9000FB880093B869B968BA6A7B6B00F0A2FB66
:100BA0007869F9683A6800F051FE0246BB691A603C
:100BB000FB6A002B02D0FB6ABA691A6000F0C6FE1D
:100BC0002C4B1B685A1C2B4B1A602B4B1B68002BA1
:100BD00009D1294BBA691A60264B1B68012B0FD12A
:100BE00000F0C8FB0CE0254B1B68002B08D1224B02
:100BF0001B68DA6ABB6A9A4202D81F4BBA691A604C
:100C00001F4B1B685A1C1E4B1A60BB69DA6A1D4BCE
:100C10001B689A4203D9BB69DA6A1A4B1A60BB692E
:100C2000DA6A13469B0013449B00174A1A44BB69B7
:100C300004331046194600F083FD0123FB6100F0E8
:100C400095FE02E04FF0FF33FB61FB69012B0BD1F6
:100C50000A4B1B68002B07D0074B1B68DA6ABB6A7C
:100C60009A4201D200F062FEFB6918462037BD4669
:100C700080BD00BFEC00002014000020F800002020
:100C800008010020F40000201800002080B584B086
:100C900000AF786000F05AFE7B68002B02D11D4B3C
:100CA0001B6800E07B68FB60FB680433184600F0BB
:100CB000A3FDFB689B6A002B04D0FB681833184621
:100CC00000F09AFDFB6804331348194600F038FD24
:100CD000124B1B685A1C114B1A60114B1B685A1C93
:100CE0000F4B1A6000F042FE0E4B1B68002B0DD01C
:100CF000084B1B68FA689A4202D100F017FE05E023
:100D000000F024FE00F01CFC00F030FE1037BD4661
:100D100080BD00BF14000020C0000020D4000020CF
:100D200008010020F800002080B584B000AF786092
:100D30000023FB607B68002B12D000F047F80C4BBF
:100D40001A687B681344BB600A4B1B68043318465F
:100D500000F052FDB86800F085FB00F045F8F8603F
:100D6000FB68002B01D100F0E1FD1037BD4680BDCE
:100D7000F00000201400002080B586B004AF0023EE
:100D800000930023019300230293002303930B4855
:100D90000B4980220023FFF7DDFE78607B68012B82
:100DA00009D100F0F5FD074B01221A60064B002225
:100DB0001A6000F09DFD0837BD4680BDC5120008D1
:100DC00070260008F8000020F000002080B400AF7A
:100DD000044B1B685A1C034B1A60BD465DF8047B2C
:100DE000704700BF0C01002080B582B000AF002327
:100DF0007B6000F0ABFD334B1B685A1E314B1A6011
:100E0000304B1B68002B56D12F4B1B68002B52D048
:100E10002FE02E4BDB68DB683B603B6818331846DD
:100E200000F0EAFC3B680433184600F0E5FC3B6840
:100E3000DA6A274B1B689A4203D93B68DA6A244B6B
:100E40001A603B68DA6A13469B0013449B00214AF0
:100E50001A443B6804331046194600F071FC3B68A5
:100E6000DA6A1D4B1B68DB6A9A4202D31B4B0122D4
:100E70001A60164B1B68002BCBD1194B1B68002B3B
:100E800011D00CE000F02EF80346002B02D0134BDB
:100E900001221A60124B1B685A1E114B1A60104B2C
:100EA0001B68002BEED10D4B1B68012B03D10123D6
:100EB0007B6000F03BFD00F059FD7B681846083769
:100EC000BD4680BD0C010020EC000020AC000020DD
:100ED000F400002018000020140000200001002071
:100EE000FC00002080B586B000AF00237B614E4B34
:100EF0001B68002B40F085804C4B1B685A1C4B4BE9
:100F00001A604A4B1B683B613B69002B10D1484B70
:100F10001B68FB60474B1A68454B1A60454BFA68E3
:100F20001A60454B1B685A1C434B1A6000F008FBC3
:100F3000424B1B683A699A424ED33D4B1B681B6873
:100F4000002B01D1012300E00023002B04D03B4BF8
:100F50004FF0FF321A603FE0354B1B68DB68DB68FF
:100F6000BB60BB685B687B603A697B689A4203D26E
:100F7000324B7A681A602FE0BB680433184600F0E1
:100F80003BFCBB689B6A002B04D0BB681833184637
:100F900000F032FCBB68DA6A294B1B689A4203D91D
:100FA000BB68DA6A264B1A60BB68DA6A13469B0094
:100FB00013449B00234A1A44BB6804331046194665
:100FC00000F0BEFBBB68DA6A1F4B1B68DB6A9A4203
:100FD00001D301237B61B0E71B4B1B68DA6A194917
:100FE00013469B0013449B000B441B68012B01D943
:100FF00001237B61154B1B68002B09D1FFF77AFB9E
:1010000006E0124B1B685A1C104B1A60FFF772FB6C
:101010000F4B1B68002B01D001237B617B691846B5
:101020001837BD4680BD00BF0C010020F000002035
:10103000A4000020A80000200401002000000020DF
:10104000F40000201800002014000020FC00002004
:101050000001002080B483B000AF1F4B1B68002B41
:1010600003D01E4B01221A6031E01C4B00221A6093
:1010700004E01B4B1B685A1E194B1A60184B1A6868
:10108000184913469B0013449B000B441B68002B1C
:10109000EFD0134B1A6813469B0013449B00114A70
:1010A00013447B607B685B685A687B685A607B6826
:1010B0005A687B6808339A4204D17B685B685A6837
:1010C0007B685A607B685B68DA68074B1A600C378C
:1010D000BD465DF8047B70470C0100200001002034
:1010E000F4000020180000201400002080B584B017
:1010F00000AF78603960124B1B6818337868194666
:1011000000F042FB0E4B1B680433184600F074FBE2
:101110003B68B3F1FF3F07D1094B1B680433094813
:10112000194600F00DFB07E0074B1A683B681344B3
:10113000FB60F86800F096F91037BD4680BD00BF2F
:1011400014000020D8000020F000002080B584B0FA
:1011500000AF78607B68DB68DB68BB60BB68183316
:10116000184600F049FB1E4B1B68002B1DD1BB68C5
:101170000433184600F040FBBB68DA6A194B1B6861
:101180009A4203D9BB68DA6A164B1A60BB68DA6AFE
:1011900013469B0013449B00134A1A44BB68043354
:1011A0001046194600F0CCFA05E0BB6818330F482A
:1011B000194600F0C5FABB68DA6A0D4B1B68DB6A9A
:1011C0009A4205D90123FB600A4B01221A6001E013
:1011D0000023FB60FB6818461037BD4680BD00BF8A
:1011E0000C010020F400002018000020AC000020BA
:1011F000140000200001002080B483B000AF7860AC
:10120000064B1A687B681A60054B1A687B685A603F
:101210000C37BD465DF8047B704700BF0401002019
:10122000F000002080B584B000AF7860396000F035
:101230008DFB1C4B1B68BB603B681B68B3F1FF3F19
:1012400002D10023FB6026E07B681A68164B1B68FE
:101250009A4207D07B685A68BB689A4202D8012339
:10126000FB6018E07B685B68BA68D21A3B681B6851
:101270009A420ED23B681A687B685968BB68CB1AE1
:101280001A443B681A607868FFF7B6FF0023FB60DA
:1012900001E00123FB6000F069FBFB681846103792
:1012A000BD4680BDF00000200401002080B400AFE6
:1012B000034B01221A60BD465DF8047B704700BFF6
:1012C0000001002080B582B000AF786000F090F897
:1012D000034B1B68012B01D900F028FBF6E700BF88
:1012E0001800002080B586B000AFF860B9607A6061
:1012F0003B6000237B6112E0BA687B6913441A7873
:10130000F9687B690B4430331A71BA687B691344FE
:101310001B78002B00D105E07B6901337B617B6981
:101320000F2BE9D9FB68002283F843207B68042B4C
:1013300001D904237B60FB687A68DA62FB687A680B
:101340005A64FB680433184600F0EEF9FB68183362
:10135000184600F0E9F9FB68FA681A617B68C3F186
:101360000502FB689A61FB68FA685A621837BD4645
:1013700080BD00BF80B582B000AF00237B600CE071
:101380007A6813469B0013449B00114A1344184685
:1013900000F0AAF97B6801337B607B68042BEFD9EE
:1013A0000C4800F0A1F90C4800F09EF90B4800F041
:1013B0009BF90B4800F098F90A4800F095F90A4BA0
:1013C000044A1A60094B044A1A600837BD4680BDBA
:1013D000180000207C00002090000020AC000020BD
:1013E000C0000020D8000020A4000020A800002099
:1013F00080B582B000AF28E0FFF7E8FC164B1B6811
:10140000002B14BF00230123DBB27B60FFF7ECFC51
:101410007B68002B19D100F099FA0F4BDB68DB6871
:101420003B603B680433184600F0E6F90B4B1B6841
:101430005A1E0A4B1A600A4B1B685A1E084B1A6048
:1014400000F094FA386800F06BF8054B1B68002B2D
:10145000D2D10837BD4680BDC0000020EC0000207E
:10146000D400002080B582B000AF7860134B1B68B9
:101470007A685A60124B1B687A689A4209D2114BFB
:101480001A680E4B1B6804331046194600F07CF9AD
:1014900010E00D4B1A68094B1B68043310461946BF
:1014A00000F072F9094B1B687A689A4202D2074B26
:1014B0007A681A600837BD4680BD00BF140000205E
:1014C000F0000020A8000020A40000200000002060
:1014D00080B584B000AF03463960FB80482000F03F
:1014E000C7FDF860FB68002B15D03B68002B06D1C8
:1014F000FB889B00184600F0BBFD034600E03B68FC
:10150000FA681363FB681B6B002B04D1F86800F0CA
:101510003BFE0023FB60FB6818461037BD4680BDCC
:1015200080B582B000AF78607B681B6B184600F016
:101530002BFE786800F028FE0837BD4680BD00BF4E
:1015400080B483B000AF0E4B1B681B68002B01D129
:10155000012300E00023002B04D00A4B4FF0FF32A0
:101560001A6008E0064B1B68DB68DB687B607B6801
:101570005A68044B1A600C37BD465DF8047B70470F
:10158000A40000200000002080B483B000AF054B11
:101590001B687B607B6818460C37BD465DF8047B92
:1015A000704700BF1400002080B584B000AF7860A1
:1015B0007B68FB607B68002B4AD0FB68DA6A264BAD
:1015C0001B68DB6A9A4243D2FB689B69002B06DBEF
:1015D000214B1B68DB6AC3F10502FB689A61FB685B
:1015E0005969FB68DA6A13469B0013449B001B4A47
:1015F0001344994201D1012300E00023002B22D0A3
:10160000FB680433184600F0F7F8134B1B68DA6ADE
:10161000FB68DA62FB68DA6A114B1B689A4203D9ED
:10162000FB68DA6A0E4B1A60FB68DA6A13469B00A5
:1016300013449B00094A1A44FB68043310461946B8
:1016400000F07EF804E0044B1B68DA6AFB68DA629B
:101650001037BD4680BD00BF1400002018000020D8
:10166000F400002080B584B000AF78607B68FB6038
:101670007B68002B30D0FB68DA6AFB685B6C9A42AF
:101680002AD0FB680433184600F0B6F8FB685A6CA1
:10169000FB68DA62FB689B69002B05DBFB68DB6A91
:1016A000C3F10502FB689A61FB68DA6A0C4B1B68A0
:1016B0009A4203D9FB68DA6A094B1A60FB68DA6A56
:1016C00013469B0013449B00064A1A44FB680433EC
:1016D0001046194600F034F81037BD4680BD00BFF3
:1016E000F40000201800002080B483B000AF7860C0
:1016F0007B6803F108027B685A607B684FF0FF3219
:101700009A607B6803F108027B68DA607B6803F10A
:1017100008027B681A617B6800221A600C37BD469C
:101720005DF8047B704700BF80B483B000AF786081
:101730007B6800221A610C37BD465DF8047B704758
:1017400080B485B000AF786039607B685B68FB600F
:101750003B68FA685A60FB689A683B689A60FB6865
:101760009B683A685A60FB683A689A603B687A6896
:101770001A617B681B685A1C7B681A601437BD4667
:101780005DF8047B704700BF80B485B000AF78601F
:1017900039603B681B68BB60BB68B3F1FF3F03D196
:1017A0007B681B69FB600CE07B680833FB6002E030
:1017B000FB685B68FB60FB685B681A68BB689A4201
:1017C000F6D9FB685A683B685A603B685B683A68C0
:1017D0009A603B68FA689A60FB683A685A603B68AE
:1017E0007A681A617B681B685A1C7B681A60143718
:1017F000BD465DF8047B704780B485B000AF78606B
:101800007B681B69FB607B685B687A6892689A609A
:101810007B689B687A6852685A60FB685A687B6884
:101820009A4203D17B689A68FB685A607B68002201
:101830001A61FB681B685A1EFB681A60FB681B680C
:1018400018461437BD465DF8047B704780B485B0F8
:1018500000AFF860B9607A60FB68043BFB60FB682E
:101860004FF080721A60FB68043BFB60BA68FB684B
:101870001A60FB68043BFB60094AFB681A60FB685E
:10188000143BFB607A68FB681A60FB68203BFB60D6
:10189000FB6818461437BD465DF8047B704700BFEF
:1018A000A518000880B500AF00F072F8FEE700BF91
:1018B000074B19680868B0E8F00F80F30988BFF398
:1018C0006F8F4FF0000080F311884EF00D0E7047BF
:1018D0001400002005480068006880F3088862B69C
:1018E000BFF34F8FBFF36F8F00DF00BF08ED00E045
:1018F00080B500AF0B4B0B4A126842F47F021A60AE
:10190000084B084A126842F07F421A6000F084F8DF
:10191000054B00221A60FFF7DDFFFFF7C3FF00232E
:10192000184680BD20ED00E00400002080B400AF28
:10193000054B4FF080521A60BFF34F8FBFF36F8F8C
:10194000BD465DF8047B704704ED00E080B500AF54
:1019500000F01EF8044B1B685A1C034B1A60BFF3BF
:101960004F8FBFF36F8F80BD0400002080B500AFA4
:10197000064B1B685A1E054B1A60044B1B68002B54
:1019800002D1002000F00EF880BD00BF040000204E
:10199000EFF311804FF0BF0181F3118870470023EE
:1019A000184600BF80F31188704700BFEFF309802D
:1019B000BFF36F8F0D4B1A6820E9F00F10602DE90F
:1019C00008404FF0BF0080F31188FFF743FB4FF052
:1019D000000080F31188BDE8084019680868B0E885
:1019E000F00F80F30988BFF36F8F70471400002059
:1019F00080B500AFFFF7CCFFFFF774FA0346002B6A
:101A000003D0044B4FF080521A600020FFF7CAFF4A
:101A100080BD00BF04ED00E080B400AF044B054A78
:101A20001A60054B07221A60BD465DF8047B7047BB
:101A300014E000E03F19010010E000E080B584B040
:101A400000AF786039607B68FB60FFF77FFFFB6861
:101A50001A68FB68DB6BF968096C01FB03F31A4435
:101A6000FB685A60FB6800229A63FB681A68FB688F
:101A70009A60FB681A68FB68DB6B013BF968096CCC
:101A800001FB03F31A44FB68DA60FB684FF0FF3296
:101A90005A64FB684FF0FF329A643B68002B0ED10A
:101AA000FB681B69002B14D0FB6810331846FFF746
:101AB0004DFB0346012B0CD1FFF738FF09E0FB6813
:101AC00010331846FFF710FEFB6824331846FFF763
:101AD0000BFEFFF74BFF012318461037BD4680BDB4
:101AE00080B588B000AFF860B9601346FB71002381
:101AF000FB61FB68002B26D04C2000F0B9FAB861DE
:101B0000BB69002B1FD0FB68BA6802FB03F30133EB
:101B10007B61786900F0ACFA0246BB691A60BB6968
:101B20001B68002B0CD0BB69FA68DA63BB69BA6822
:101B30001A64B8690121FFF781FFBB69FB6102E00C
:101B4000B86900F021FBFB6918462037BD4680BD0F
:101B500080B588B000AFF860B9607A603B60002360
:101B6000FB61FB68BB61FFF7F1FEBB699A6BBB6968
:101B7000DB6B9A4202D33B68022B16D1B869B96875
:101B80003A6800F06DF9BB695B6A002B09D0BB694C
:101B900024331846FFF7DAFA0346012B01D1FFF789
:101BA000C5FEFFF7E3FE012359E07B68002B03D15C
:101BB000FFF7DCFE002352E0FB69002B06D107F1A2
:101BC00010031846FFF718FB0123FB61FFF7CEFE59
:101BD000FFF7FCF8FFF7BAFEBB695B6CB3F1FF3FA0
:101BE00002D1BB6900225A64BB699B6CB3F1FF3F11
:101BF00002D1BB6900229A64FFF7B8FE07F1100218
:101C00003B1D10461946FFF70DFB0346002B1ED166
:101C1000B86900F015FA0346002B12D0BB6903F136
:101C200010027B6810461946FFF760FAB86900F0A9
:101C3000A5F9FFF7D9F80346002B0FD1FFF776FE81
:101C40000CE0B86900F09AF9FFF7CEF88BE7B869B5
:101C500000F094F9FFF7C8F8002300E083E7184686
:101C60002037BD4680BD00BF80B588B000AFF860AA
:101C7000B9607A603B60FB68BB61FFF789FE786101
:101C8000BB699A6BBB69DB6B9A4202D33B68022B40
:101C900024D1B869B9683A6800F0E2F8BB699B6C76
:101CA000B3F1FF3F12D1BB695B6A002B13D0BB6954
:101CB00024331846FFF74AFA0346002B0BD07B6803
:101CC000002B08D07B6801221A6004E0BB699B6C82
:101CD0005A1CBB699A640123FB6101E00023FB618C
:101CE0007869FFF75FFEFB6918462037BD4680BD67
:101CF00080B58AB000AFF860B9607A603B600023BD
:101D00007B62FB683B62FFF721FE3B6A9B6B002B0B
:101D10003BD03B6ADB68FB61386AB96800F008F9C0
:101D20003B68002B1CD13B6A9B6B5A1E3B6A9A6333
:101D30003B6A1B68002B04D1FFF726FC02463B6A76
:101D40005A603B6A1B69002B1BD03B6A1033184654
:101D5000FFF7FCF90346012B13D1FFF7E7FD10E075
:101D60003B6AFA69DA603B6A5B6A002B09D03B6A1E
:101D700024331846FFF7EAF90346002B01D0FFF79A
:101D8000D5FDFFF7F3FD012366E07B68002B03D14F
:101D9000FFF7ECFD00235FE07B6A002B06D107F123
:101DA00014031846FFF728FA01237B62FFF7DEFDD4
:101DB000FFF70CF8FFF7CAFD3B6A5B6CB3F1FF3F1E
:101DC00002D13B6A00225A643B6A9B6CB3F1FF3F2D
:101DD00002D13B6A00229A64FFF7C8FD07F11402A2
:101DE0003B1D10461946FFF71DFA0346002B2BD169
:101DF000386A00F00FF90346002B1FD03B6A1B68BE
:101E0000002B08D1FFF7A2FD3B6A5B681846FFF77D
:101E1000CBFBFFF7ABFD3B6A03F124027B68104666
:101E20001946FFF763F9386A00F0A8F8FEF7DCFFFF
:101E30000346002B0FD1FFF779FD0CE0386A00F064
:101E40009DF8FEF7D1FF5EE7386A00F097F8FEF7DD
:101E5000CBFF002300E056E718462837BD4680BD7B
:101E600080B584B000AFF860B9607A60FB681B6C25
:101E7000002B0CD1FB681B68002B51D1FB685B6801
:101E80001846FFF7EFFBFB6800225A6048E07B68CA
:101E9000002B1AD1FB689A68FB681B6C1046B96866
:101EA0001A4600F045FBFB689A68FB681B6C1A44F5
:101EB000FB689A60FB689A68FB685B689A422FD35C
:101EC000FB681A68FB689A602AE0FB68DA68FB68BE
:101ED0001B6C1046B9681A4600F02AFBFB68DA68EA
:101EE000FB681B6C5B421A44FB68DA60FB68DA68CB
:101EF000FB681B689A4207D2FB685A68FB681B6C38
:101F00005B421A44FB68DA607B68022B08D1FB68ED
:101F10009B6B002B04D0FB689B6B5A1EFB689A637B
:101F2000FB689B6B5A1CFB689A631037BD4680BDEB
:101F300080B582B000AF786039607B681B68002B89
:101F400019D07B68DA687B681B6C1A447B68DA609E
:101F50007B68DA687B685B689A4203D37B681A689F
:101F60007B68DA607B68DA687B681B6C38681146CE
:101F70001A4600F0DDFA0837BD4680BD80B582B054
:101F800000AF7860FFF7E2FC14E07B685B6A002B2F
:101F90000AD07B6824331846FFF7D8F80346002B95
:101FA00003D0FFF783F900E008E07B689B6C5A1EC2
:101FB0007B689A647B689B6C002BE6DC7B684FF047
:101FC000FF329A64FFF7D2FCFFF7C0FC14E07B6895
:101FD0001B69002B0FD07B6810331846FFF7B6F84B
:101FE0000346002B01D0FFF761F97B685B6C5A1E3A
:101FF0007B685A6400E003E07B685B6C002BE6DCE6
:102000007B684FF0FF325A64FFF7B0FC0837BD46DB
:1020100080BD00BF80B584B000AF7860FFF796FC4C
:102020007B689B6B002B02D10123FB6001E0002346
:10203000FB60FFF79BFCFB6818461037BD4680BD70
:1020400080B584B000AF7860FFF780FC7B689A6B46
:102050007B68DB6B9A4202D10123FB6001E0002325
:10206000FB60FFF783FCFB6818461037BD4680BD58
:1020700080B588B000AF786000237B61FEF7A6FED4
:102080003D4B1B68002B04D100F0B6F83A4B0122FF
:102090001A607B68002B0DD008237A6813447B609C
:1020A0007B6803F00703002B04D07B6823F0070351
:1020B00008337B607B68002B57D07A6844F2F73393
:1020C0009A4252D82D4BBB612C4B1B68FB6104E03C
:1020D000FB69BB61FB691B68FB61FB695A687B6834
:1020E0009A4203D2FB691B68002BF1D1FA69244B99
:1020F0009A423AD0BB691A68082313447B61FB6992
:102100001A68BB691A60FB695A687B68D21A08238F
:102110005B009A4222D9FA697B681344FB60FB6931
:102120005A687B68D21AFB685A60FB697A685A6001
:10213000FB685B68BB60114B3B6102E03B691B685D
:102140003B613B691B685A68BB689A42F6D33B699E
:102150001A68FB681A603B69FA681A60094B1A68CA
:10216000FB695B68D21A074B1A60FEF73DFE7B697C
:1021700018462037BD4680BD204500201045002070
:10218000184500200800002080B586B000AF7860B8
:102190007B683B617B68002B27D008235B423A6950
:1021A00013443B613B69FB60FEF710FEFB685B6814
:1021B000BB600F4B7B6102E07B691B687B617B69C5
:1021C0001B685A68BB689A42F6D37B691A68FB6839
:1021D0001A607B69FA681A60FB685A68054B1B68CD
:1021E0001A44044B1A60FEF7FFFD1837BD4680BD48
:1021F000104500200800002080B483B000AF0F4BD2
:1022000023F007037B600E4B7A681A600C4B0022A8
:102210005A600C4B44F2F8325A600A4B00221A60A2
:102220007B683B603B6844F2F8325A603B68054A81
:102230001A600C37BD465DF8047B7047180100201A
:10224000104500201845002080B400AF044B044A1C
:10225000126842F400221A60BD465DF8047B7047A4
:102260000010024080B483B000AF00237B600023E5
:102270003B60384B374A126842F480321A60354B63
:102280001B6803F400333B607B6801337B603B6871
:10229000002B03D17B68B3F5A06FF0D12D4B1B68E9
:1022A00003F40033002B02D001233B6001E0002344
:1022B0003B603B68012B45D1274B274A126842F00F
:1022C00010021A60244B244A126842F002021A607B
:1022D000204B204A52685A601E4B1E4A52685A6070
:1022E0001C4B1C4A526842F480625A60194B194ACE
:1022F000526822F47C125A60164B164A526842F415
:1023000088125A60134B134A126842F080721A60A6
:1023100000BF104B1B6803F00073002BF9D00D4B6E
:102320000C4A526822F003025A600A4B094A52686A
:1023300042F002025A6000BF064B5B6803F00C03D8
:10234000082BF9D13B6818460C37BD465DF8047B75
:10235000704700BF001002400020024080B400AF70
:10236000044B044A926842F400029A60BD465DF84C
:10237000047B70470010024080B483B000AF034676
:10238000FB71084B97F907205209F97901F01F01F9
:10239000012000FA01F143F822100C37BD465DF828
:1023A000047B704700E100E080B483B000AF0346D7
:1023B0003960FB7197F90730002B0BDA0D49FB7977
:1023C00003F00F03043B3A68D2B21201D2B20B44BD
:1023D0001A7609E0084997F907303A68D2B2120133
:1023E000D2B20B4483F800230C37BD465DF8047B62
:1023F000704700BF00ED00E000E100E080B483B072
:1024000000AF03463960FB80314B314A926942F09C
:1024100004029A612F4B2F4A526822F040025A6000
:102420002C4B2C4A526842F080025A60294B294AB0
:10243000526842F030025A60264B264A526822F413
:1024400000625A60234B234A526842F480625A6009
:10245000204B204A526822F440725A601C4B1C4A9E
:10246000926942F480429A611B4BFA883968B1FB49
:10247000F2F292B21A81184B174A928992B242F440
:10248000005292B29A81144B134A928992B222F46A
:10249000805292B29A81104B0F4A928992B222F4E2
:1024A000806292B29A810C4B0B4A928992B242F0AE
:1024B0000C0292B29A81084B074A128A92B222F415
:1024C000405292B21A820C37BD465DF8047B7047C9
:1024D00000100240000801400038014080B500AF04
:1024E000074B074A928992B242F0200292B29A8137
:1024F0002520FFF741FF2520FF21FFF755FF80BD75
:102500000038014080B400AF084B1B889BB203F039
:102510002003002B04D0054B9B889BB2DBB200E06C
:1025200000231846BD465DF8047B70470038014023
:10253000844641EA000313F0030349D1403A23D310
:102540000B6803604B6843608B688360CB68C36033
:102550000B6903614B6943618B698361CB69C3611B
:102560000B6A03624B6A43628B6A8362CB6AC36203
:102570000B6B03634B6B43638B6B8363CB6BC363EB
:1025800040304031403ADBD230320BD30B6803602D
:102590004B6843608B688360CB68C3601030103138
:1025A000103AF3D20C3205D351F8043B40F8043B07
:1025B000043AF9D2043208D0D2071CBF11F8013B0B
:1025C00000F8013B01D30B8803806046704700BFD1
:1025D000082A13D38B07B1D010F00303AED0C3F198
:1025E0000403D21ADB071CBF11F8013B00F8013BC2
:1025F000A4D331F8023B20F8023B9FE7043AD9D339
:10260000013A11F8013B00F8013BF9D20B78037055
:102610004B7843708B7883706046704755534152B6
:102620005468616E646C657200000000496E6974E4
:10263000616C6C004C4544310000000048656C6CD6
:102640006F20776F726C64212121202020202020B0
:10265000202020202020202020202000000000001A
:102660004C636453686F770050757453796D6200E2
:0826700049444C450000000044
:0C267800FFFFFFFFAAAAAAAAF843000077
:0400000508000000EF
:00000001FF
